{
  "contractName": "VickreyAuction",
  "abi": [
    {
      "inputs": [
        {
          "name": "_starting",
          "type": "uint256"
        }
      ],
      "payable": false,
      "stateMutability": "nonpayable",
      "type": "constructor"
    },
    {
      "constant": false,
      "inputs": [],
      "name": "getTotalBuyers",
      "outputs": [
        {
          "name": "",
          "type": "uint256"
        }
      ],
      "payable": false,
      "stateMutability": "nonpayable",
      "type": "function"
    },
    {
      "constant": false,
      "inputs": [],
      "name": "getIsOpen",
      "outputs": [
        {
          "name": "",
          "type": "bool"
        }
      ],
      "payable": false,
      "stateMutability": "nonpayable",
      "type": "function"
    },
    {
      "constant": false,
      "inputs": [
        {
          "name": "price",
          "type": "uint256"
        },
        {
          "name": "buyer",
          "type": "address"
        }
      ],
      "name": "bid",
      "outputs": [],
      "payable": false,
      "stateMutability": "nonpayable",
      "type": "function"
    },
    {
      "constant": false,
      "inputs": [],
      "name": "closeAuction",
      "outputs": [],
      "payable": false,
      "stateMutability": "nonpayable",
      "type": "function"
    },
    {
      "constant": false,
      "inputs": [],
      "name": "findWinner",
      "outputs": [
        {
          "name": "",
          "type": "address"
        },
        {
          "name": "",
          "type": "uint256"
        }
      ],
      "payable": false,
      "stateMutability": "nonpayable",
      "type": "function"
    },
    {
      "constant": false,
      "inputs": [],
      "name": "trade",
      "outputs": [],
      "payable": true,
      "stateMutability": "payable",
      "type": "function"
    }
  ],
  "bytecode": "0x608060405234801561001057600080fd5b506040516020806104dd83398101806040528101908080519060200190929190505050336000806101000a81548173ffffffffffffffffffffffffffffffffffffffff021916908373ffffffffffffffffffffffffffffffffffffffff1602179055506001600060146101000a81548160ff02191690831515021790555060006001819055508060048190555050610430806100ad6000396000f300608060405260043610610078576000357c0100000000000000000000000000000000000000000000000000000000900463ffffffff1680631f0ba6c91461007d578063378252f2146100875780638e71decb1461009e5780639f04996d146100fc578063b1b0be2f14610149578063e97b768914610178575b600080fd5b6100856101a3565b005b34801561009357600080fd5b5061009c610206565b005b3480156100aa57600080fd5b506100b3610222565b604051808373ffffffffffffffffffffffffffffffffffffffff1673ffffffffffffffffffffffffffffffffffffffff1681526020018281526020019250505060405180910390f35b34801561010857600080fd5b5061014760048036038101908080359060200190929190803573ffffffffffffffffffffffffffffffffffffffff16906020019092919050505061031a565b005b34801561015557600080fd5b5061015e6103e4565b604051808215151515815260200191505060405180910390f35b34801561018457600080fd5b5061018d6103fa565b6040518082815260200191505060405180910390f35b6000809054906101000a900473ffffffffffffffffffffffffffffffffffffffff1673ffffffffffffffffffffffffffffffffffffffff166108fc349081150290604051600060405180830381858888f19350505050151561020457600080fd5b565b60008060146101000a81548160ff021916908315150217905550565b6000806000806000806000935060009250600090505b60038054905081101561030c5760038181548110151561025457fe5b90600052602060002001548410156102c05783925060038181548110151561027857fe5b906000526020600020015493506002600082815260200190815260200160002060009054906101000a900473ffffffffffffffffffffffffffffffffffffffff1691506102ff565b6003818154811015156102cf57fe5b90600052602060002001548310156102fe576003818154811015156102f057fe5b906000526020600020015492505b5b8080600101915050610238565b818395509550505050509091565b60011515600060149054906101000a900460ff16151514151561033c57600080fd5b818060045410151561034d57600080fd5b8160026000600154815260200190815260200160002060006101000a81548173ffffffffffffffffffffffffffffffffffffffff021916908373ffffffffffffffffffffffffffffffffffffffff1602179055506003839080600181540180825580915050906001820390600052602060002001600090919290919091505550600160008154809291906001019190505550505050565b60008060149054906101000a900460ff16905090565b60006001549050905600a165627a7a723058203afa9242e126581e5664252a40ad1996bad5184692d5878f6a0ef3974df0364a0029",
  "source": "pragma solidity ^0.4.24;\r\n\r\ncontract VickreyAuction {\r\n  address seller;\r\n  bool isOpen;\r\n  uint totalBuyers;\r\n  mapping (uint => address) buyers;\r\n  uint[] offers;\r\n  //define the lowest acceptable price\r\n  uint starting;\r\n\r\n  modifier open() {\r\n    require(isOpen == true);\r\n    _;\r\n  }\r\n  modifier enough(uint price) {\r\n    require(starting < price);\r\n    _;\r\n  }\r\n\r\n  function VickreyAuction(uint _starting) {\r\n    seller = msg.sender;\r\n    isOpen = true;\r\n    totalBuyers = 0;\r\n    starting = _starting;\r\n  }\r\n\r\n  function getTotalBuyers() returns (uint) {\r\n    return totalBuyers;\r\n  }\r\n\r\n  function getIsOpen() returns (bool) {\r\n    return isOpen;\r\n  }\r\n\r\n  function bid(uint price, address buyer) open enough(price) {\r\n    buyers[totalBuyers] = buyer;\r\n    offers.push(price);\r\n    totalBuyers++;\r\n  }\r\n\r\n  function closeAuction() {\r\n    isOpen = false;\r\n  }\r\n\r\n  function findWinner() returns (address, uint) {\r\n    uint highestPrice = 0;\r\n    uint higherPrice = 0;\r\n    address winner;\r\n    for(uint i = 0; i < offers.length; i++){\r\n      if(highestPrice < offers[i]){\r\n        higherPrice = highestPrice;\r\n        highestPrice = offers[i];\r\n        winner = buyers[i];\r\n      }else{\r\n        if(higherPrice < offers[i]){\r\n          higherPrice = offers[i];\r\n        }\r\n      }\r\n    }\r\n    return (winner, higherPrice);\r\n  }\r\n\r\n  function trade() payable{\r\n    if (!seller.send(msg.value)) revert();\r\n  }\r\n\r\n  /*function getBalance(address addr) returns(uint) {\r\n        return balances[addr];\r\n    }*/\r\n}\r\n",
  "sourcePath": "C:\\Users\\xwang89\\OneDrive - DXC Production\\Dev\\Exo\\Vickrey Auction\\contracts\\VickreyAuction.sol",
  "compiler": {
    "name": "solc",
    "version": "0.4.24+commit.e67f0147.Emscripten.clang"
  },
  "schemaVersion": "2.0.1",
  "updatedAt": "2018-10-15T17:22:42.978Z"
}