{
  "contractName": "Liar",
  "abi": [
    {
      "constant": true,
      "inputs": [],
      "name": "no_p1",
      "outputs": [
        {
          "internalType": "uint256",
          "name": "",
          "type": "uint256"
        }
      ],
      "payable": false,
      "stateMutability": "view",
      "type": "function"
    },
    {
      "constant": true,
      "inputs": [],
      "name": "no_p2",
      "outputs": [
        {
          "internalType": "uint256",
          "name": "",
          "type": "uint256"
        }
      ],
      "payable": false,
      "stateMutability": "view",
      "type": "function"
    },
    {
      "constant": true,
      "inputs": [],
      "name": "no_p3",
      "outputs": [
        {
          "internalType": "uint256",
          "name": "",
          "type": "uint256"
        }
      ],
      "payable": false,
      "stateMutability": "view",
      "type": "function"
    },
    {
      "constant": true,
      "inputs": [],
      "name": "no_p4",
      "outputs": [
        {
          "internalType": "uint256",
          "name": "",
          "type": "uint256"
        }
      ],
      "payable": false,
      "stateMutability": "view",
      "type": "function"
    },
    {
      "constant": false,
      "inputs": [],
      "name": "roll",
      "outputs": [],
      "payable": false,
      "stateMutability": "nonpayable",
      "type": "function"
    },
    {
      "constant": false,
      "inputs": [
        {
          "internalType": "uint256",
          "name": "number",
          "type": "uint256"
        },
        {
          "internalType": "uint256",
          "name": "count",
          "type": "uint256"
        }
      ],
      "name": "raise_bid",
      "outputs": [],
      "payable": false,
      "stateMutability": "nonpayable",
      "type": "function"
    },
    {
      "constant": false,
      "inputs": [],
      "name": "challenge_bid",
      "outputs": [],
      "payable": false,
      "stateMutability": "nonpayable",
      "type": "function"
    }
  ],
  "bytecode": "0x608060405234801561001057600080fd5b506105f0806100206000396000f3fe608060405234801561001057600080fd5b506004361061007d5760003560e01c8063bd2e238a1161005b578063bd2e238a146100c8578063c407662d14610100578063cd5e3c5d1461011e578063d57121dd146101285761007d565b80631c601fb31461008257806381aa837c1461008c578063a60b2850146100aa575b600080fd5b61008a610146565b005b61009461027d565b6040518082815260200191505060405180910390f35b6100b2610283565b6040518082815260200191505060405180910390f35b6100fe600480360360408110156100de57600080fd5b810190808035906020019092919080359060200190929190505050610289565b005b6101086102c9565b6040518082815260200191505060405180910390f35b6101266102cf565b005b6101306105b5565b6040518082815260200191505060405180910390f35b60008090505b60005481101561018e576018546004826005811061016657fe5b0154141561018157601a600081548092919060010191905055505b808060010191505061014c565b5060008090505b6001548110156101d757601854600982600581106101af57fe5b015414156101ca57601a600081548092919060010191905055505b8080600101915050610195565b5060008090505b60025481101561022057601854600e82600581106101f857fe5b0154141561021357601a600081548092919060010191905055505b80806001019150506101de565b5060008090505b600354811015610269576018546013826005811061024157fe5b0154141561025c57601a600081548092919060010191905055505b8080600101915050610227565b50601854601a541061027a5761027b565b5b565b60025481565b60035481565b601854821015610298576102c5565b601854821480156102ab57506019548111155b156102b5576102c4565b81601881905550806019819055505b5b5050565b60005481565b60008090505b6000548110156103875760064233604051602001808381526020018273ffffffffffffffffffffffffffffffffffffffff1673ffffffffffffffffffffffffffffffffffffffff1660601b8152601401925050506040516020818303038152906040528051906020012060001c8161034957fe5b066004826005811061035757fe5b01819055506004816005811061036957fe5b016000815480929190600101919050555080806001019150506102d5565b5060008090505b6001548110156104405760064233604051602001808381526020018273ffffffffffffffffffffffffffffffffffffffff1673ffffffffffffffffffffffffffffffffffffffff1660601b8152601401925050506040516020818303038152906040528051906020012060001c8161040257fe5b066009826005811061041057fe5b01819055506009816005811061042257fe5b0160008154809291906001019190505550808060010191505061038e565b5060008090505b6002548110156104f95760064233604051602001808381526020018273ffffffffffffffffffffffffffffffffffffffff1673ffffffffffffffffffffffffffffffffffffffff1660601b8152601401925050506040516020818303038152906040528051906020012060001c816104bb57fe5b06600e82600581106104c957fe5b0181905550600e81600581106104db57fe5b01600081548092919060010191905055508080600101915050610447565b5060008090505b6003548110156105b25760064233604051602001808381526020018273ffffffffffffffffffffffffffffffffffffffff1673ffffffffffffffffffffffffffffffffffffffff1660601b8152601401925050506040516020818303038152906040528051906020012060001c8161057457fe5b066013826005811061058257fe5b01819055506013816005811061059457fe5b01600081548092919060010191905055508080600101915050610500565b50565b6001548156fea265627a7a72315820c9dbf49658aed573aa04317282a6c7428102076ac5d789d973b02ea614de475164736f6c63430005100032",
  "source": "pragma solidity >=0.4.22 <0.8.0;\n\ncontract Liar {\n    // number of dices with each player\n    uint256 public no_p1;\n    uint256 public no_p2;\n    uint256 public no_p3;\n    uint256 public no_p4;\n    uint[5] p1;\n    uint[5] p2;\n    uint[5] p3;\n    uint[5] p4;\n\n    uint bid_value;\n    uint bid_count;\n\n    function roll() public {\n        for (uint i=0 ; i<no_p1 ; i++){\n           p1[i] = uint(keccak256(abi.encodePacked(block.timestamp, msg.sender))) % 6;\n           p1[i]++;\n\n        }\n        for (uint i=0 ; i<no_p2 ; i++){\n           p2[i] = uint(keccak256(abi.encodePacked(block.timestamp, msg.sender))) % 6;\n           p2[i]++;\n\n        }\n        for (uint i=0 ; i<no_p3 ; i++){\n           p3[i] = uint(keccak256(abi.encodePacked(block.timestamp, msg.sender))) % 6;\n           p3[i]++;\n\n        }\n        for (uint i=0 ; i<no_p4 ; i++){\n           p4[i] = uint(keccak256(abi.encodePacked(block.timestamp, msg.sender))) % 6;\n           p4[i]++;\n\n        }\n    }\n\n\n    function raise_bid(uint number, uint count) public {\n        if(number < bid_value)\n        {\n            //invalid bid (send message to react)\n        }\n        else\n        {\n            if(number==bid_value && count <= bid_count)\n            {\n                // invalid bid mesaage\n            }\n            else\n            {\n                bid_value=number;\n                bid_count=count;\n            }\n        }\n    }\n    uint t;\n    function challenge_bid()  public {\n        for (uint i=0; i<no_p1; i++)\n        {\n            if(p1[i]==bid_value)\n            {\n                t++;\n            }\n        }\n        for (uint i=0; i<no_p2; i++)\n        {\n            if(p2[i]==bid_value)\n            {\n                t++;\n            }\n        }\n        for (uint i=0; i<no_p3; i++)\n        {\n            if(p3[i]==bid_value)\n            {\n                t++;\n            }\n        }\n        for (uint i=0; i<no_p4; i++)\n        {\n            if(p4[i]==bid_value)\n            {\n                t++;\n            }\n        }\n        if(t>= bid_value)\n        {\n            //Bid seccessful\n        }\n        else\n        {\n            // bid unsuccessful\n        }\n    }\n}\n\n",
  "sourcePath": "/home/imnotinamoodtobecreative/Desktop/Srinath/3-1/Block Chain/Assignment/A2/liarDice/contracts/Liar.sol",
  "compiler": {
    "name": "solc",
    "version": "0.5.16+commit.9c3226ce.Emscripten.clang"
  },
  "schemaVersion": "3.2.4",
  "updatedAt": "2020-10-12T20:00:35.592Z",
  "devdoc": {
    "methods": {}
  },
  "userdoc": {
    "methods": {}
  }
}